{
  "contractName": "Junk",
  "abi": [
    {
      "constant": true,
      "inputs": [],
      "name": "itemCounter",
      "outputs": [
        {
          "name": "",
          "type": "uint256"
        }
      ],
      "payable": false,
      "stateMutability": "view",
      "type": "function"
    },
    {
      "constant": true,
      "inputs": [
        {
          "name": "",
          "type": "uint256"
        }
      ],
      "name": "items",
      "outputs": [
        {
          "name": "id",
          "type": "uint256"
        },
        {
          "name": "name",
          "type": "string"
        },
        {
          "name": "owner",
          "type": "string"
        },
        {
          "name": "amount",
          "type": "uint256"
        },
        {
          "name": "stock_price",
          "type": "uint256"
        },
        {
          "name": "description",
          "type": "string"
        },
        {
          "name": "expire",
          "type": "string"
        }
      ],
      "payable": false,
      "stateMutability": "view",
      "type": "function"
    },
    {
      "constant": true,
      "inputs": [
        {
          "name": "",
          "type": "uint256"
        }
      ],
      "name": "buyers",
      "outputs": [
        {
          "name": "",
          "type": "address"
        }
      ],
      "payable": false,
      "stateMutability": "view",
      "type": "function"
    },
    {
      "inputs": [],
      "payable": false,
      "stateMutability": "nonpayable",
      "type": "constructor"
    },
    {
      "constant": true,
      "inputs": [],
      "name": "getBuyers",
      "outputs": [
        {
          "name": "",
          "type": "address[]"
        }
      ],
      "payable": false,
      "stateMutability": "view",
      "type": "function"
    },
    {
      "constant": false,
      "inputs": [
        {
          "name": "_itemId",
          "type": "uint256"
        }
      ],
      "name": "buy",
      "outputs": [
        {
          "name": "",
          "type": "uint256"
        }
      ],
      "payable": false,
      "stateMutability": "nonpayable",
      "type": "function"
    }
  ],
  "bytecode": "0x606060405234156200001057600080fd5b6200010a6040805190810160405280600481526020017f65676773000000000000000000000000000000000000000000000000000000008152506040805190810160405280600481526020017f6661726d00000000000000000000000000000000000000000000000000000000815250606460046040805190810160405280601581526020017f6f7267616e69632c206465636f6d706f7361626c6500000000000000000000008152506040805190810160405280600a81526020017f31372f30342f3230313800000000000000000000000000000000000000000000815250620005f764010000000002620007a2176401000000009004565b620002056040805190810160405280600481526020017f776f6f64000000000000000000000000000000000000000000000000000000008152506040805190810160405280600a81526020017f666f7265737420696e63000000000000000000000000000000000000000000008152506103e860196040805190810160405280602081526020017f6f7267616e69632c206465636f6d706f7361626c652c20666c616d6d61626c658152506040805190810160405280600a81526020017f31372f30342f3230323000000000000000000000000000000000000000000000815250620005f764010000000002620007a2176401000000009004565b620003006040805190810160405280600c81526020017f756e757361626c65206f696c00000000000000000000000000000000000000008152506040805190810160405280600d81526020017f636869707320666163746f727900000000000000000000000000000000000000815250612710603f6040805190810160405280601281526020017f6f7267616e69632c20666c616d6d61626c6500000000000000000000000000008152506040805190810160405280600a81526020017f31372f30342f3230313900000000000000000000000000000000000000000000815250620005f764010000000002620007a2176401000000009004565b620003fb6040805190810160405280600e81526020017f706f7461746f6573207065656c730000000000000000000000000000000000008152506040805190810160405280600d81526020017f636869707320666163746f727900000000000000000000000000000000000000815250610bb8602a6040805190810160405280601481526020017f6f7267616e69632c206465636f6d707361626c650000000000000000000000008152506040805190810160405280600a81526020017f31372f30342f3230313900000000000000000000000000000000000000000000815250620005f764010000000002620007a2176401000000009004565b620004f66040805190810160405280601281526020017f62726f6b656e20656c656374726f6e69637300000000000000000000000000008152506040805190810160405280600b81526020017f53616d73756e6720696e630000000000000000000000000000000000000000008152506103e860616040805190810160405280601881526020017f6d6574616c2c20616c756d756e69756d2c20636f7070657200000000000000008152506040805190810160405280600a81526020017f31372f30342f3230323000000000000000000000000000000000000000000000815250620005f764010000000002620007a2176401000000009004565b620005f16040805190810160405280600781526020017f706c6173746963000000000000000000000000000000000000000000000000008152506040805190810160405280601581526020017f41746c617320706c617374696320666163746f72790000000000000000000000815250611770603e6040805190810160405280600781526020017f38302520505643000000000000000000000000000000000000000000000000008152506040805190810160405280600a81526020017f31372f30342f3230353000000000000000000000000000000000000000000000815250620005f764010000000002620007a2176401000000009004565b620007a7565b60016000815480929190600101919050555060e06040519081016040528060015481526020018781526020018681526020018581526020018481526020018381526020018281525060008060015481526020019081526020016000206000820151816000015560208201518160010190805190602001906200067b929190620006f8565b5060408201518160020190805190602001906200069a929190620006f8565b50606082015181600301556080820151816004015560a0820151816005019080519060200190620006cd929190620006f8565b5060c0820151816006019080519060200190620006ec929190620006f8565b50905050505050505050565b828054600181600116156101000203166002900490600052602060002090601f016020900481019282601f106200073b57805160ff19168380011785556200076c565b828001600101855582156200076c579182015b828111156200076b5782518255916020019190600101906200074e565b5b5090506200077b91906200077f565b5090565b620007a491905b80821115620007a057600081600090555060010162000786565b5090565b90565b61096c80620007b76000396000f30060606040526004361061006d576000357c0100000000000000000000000000000000000000000000000000000000900463ffffffff1680636d6d00ed14610072578063bfb231d21461009b578063d96a094a14610290578063f2aa8218146102c7578063f64bfaba1461032a575b600080fd5b341561007d57600080fd5b610085610394565b6040518082815260200191505060405180910390f35b34156100a657600080fd5b6100bc600480803590602001909190505061039a565b604051808881526020018060200180602001878152602001868152602001806020018060200185810385528b818151815260200191508051906020019080838360005b8381101561011a5780820151818401526020810190506100ff565b50505050905090810190601f1680156101475780820380516001836020036101000a031916815260200191505b5085810384528a818151815260200191508051906020019080838360005b83811015610180578082015181840152602081019050610165565b50505050905090810190601f1680156101ad5780820380516001836020036101000a031916815260200191505b50858103835287818151815260200191508051906020019080838360005b838110156101e65780820151818401526020810190506101cb565b50505050905090810190601f1680156102135780820380516001836020036101000a031916815260200191505b50858103825286818151815260200191508051906020019080838360005b8381101561024c578082015181840152602081019050610231565b50505050905090810190601f1680156102795780820380516001836020036101000a031916815260200191505b509b50505050505050505050505060405180910390f35b341561029b57600080fd5b6102b1600480803590602001909190505061063c565b6040518082815260200191505060405180910390f35b34156102d257600080fd5b6102e860048080359060200190919050506106bb565b604051808273ffffffffffffffffffffffffffffffffffffffff1673ffffffffffffffffffffffffffffffffffffffff16815260200191505060405180910390f35b341561033557600080fd5b61033d6106fa565b6040518080602001828103825283818151815260200191508051906020019060200280838360005b83811015610380578082015181840152602081019050610365565b505050509050019250505060405180910390f35b60015481565b6000602052806000526040600020600091509050806000015490806001018054600181600116156101000203166002900480601f01602080910402602001604051908101604052809291908181526020018280546001816001161561010002031660029004801561044c5780601f106104215761010080835404028352916020019161044c565b820191906000526020600020905b81548152906001019060200180831161042f57829003601f168201915b505050505090806002018054600181600116156101000203166002900480601f0160208091040260200160405190810160405280929190818152602001828054600181600116156101000203166002900480156104ea5780601f106104bf576101008083540402835291602001916104ea565b820191906000526020600020905b8154815290600101906020018083116104cd57829003601f168201915b505050505090806003015490806004015490806005018054600181600116156101000203166002900480601f0160208091040260200160405190810160405280929190818152602001828054600181600116156101000203166002900480156105945780601f1061056957610100808354040283529160200191610594565b820191906000526020600020905b81548152906001019060200180831161057757829003601f168201915b505050505090806006018054600181600116156101000203166002900480601f0160208091040260200160405190810160405280929190818152602001828054600181600116156101000203166002900480156106325780601f1061060757610100808354040283529160200191610632565b820191906000526020600020905b81548152906001019060200180831161061557829003601f168201915b5050505050905087565b6000808211801561064f57506001548211155b151561065a57600080fd5b3360028381548110151561066a57fe5b906000526020600020900160006101000a81548173ffffffffffffffffffffffffffffffffffffffff021916908373ffffffffffffffffffffffffffffffffffffffff160217905550819050919050565b6002818154811015156106ca57fe5b90600052602060002090016000915054906101000a900473ffffffffffffffffffffffffffffffffffffffff1681565b61070261078e565b600280548060200260200160405190810160405280929190818152602001828054801561078457602002820191906000526020600020905b8160009054906101000a900473ffffffffffffffffffffffffffffffffffffffff1673ffffffffffffffffffffffffffffffffffffffff168152602001906001019080831161073a575b5050505050905090565b602060405190810160405280600081525090565b60016000815480929190600101919050555060e060405190810160405280600154815260200187815260200186815260200185815260200184815260200183815260200182815250600080600154815260200190815260200160002060008201518160000155602082015181600101908051906020019061082492919061089b565b50604082015181600201908051906020019061084192919061089b565b50606082015181600301556080820151816004015560a082015181600501908051906020019061087292919061089b565b5060c082015181600601908051906020019061088f92919061089b565b50905050505050505050565b828054600181600116156101000203166002900490600052602060002090601f016020900481019282601f106108dc57805160ff191683800117855561090a565b8280016001018555821561090a579182015b828111156109095782518255916020019190600101906108ee565b5b509050610917919061091b565b5090565b61093d91905b80821115610939576000816000905550600101610921565b5090565b905600a165627a7a723058204ee4bd91196e5661c143d846d3d22b9d8dc4ddab5e0260b98666d067e112e8260029",
  "source": "pragma solidity ^0.4.2;\r\n\r\n/**\r\n * The Junk contract \r\n */\r\ncontract Junk {\r\n//make model\r\nstruct Item {\r\n    uint id;\r\n    string name;\r\n    string owner;\r\n    uint amount;\r\n    uint stock_price;\r\n    string description;\r\n    string expire;\r\n}\r\n\r\n\r\n//fetch items\r\nmapping (uint => Item) public items;\r\n\r\n\r\n//item counter\r\nuint public itemCounter;\r\n\r\n\r\n//buyers list\r\naddress[] public buyers;\r\n\r\n// Retrieving the buyers\r\nfunction getBuyers() public view returns (address[]) {\r\n  return buyers;\r\n}\r\n\r\nfunction addItem (\r\n    string _name, \r\n    string _owner, \r\n    uint _amount,\r\n    uint _stock_price,\r\n    string _description,\r\n    string _expire  ) private {\r\n\r\n    itemCounter++;\r\n    items[itemCounter] = Item(itemCounter, _name, _owner, _amount, _stock_price, _description, _expire);\r\n}\r\n\r\nfunction buy (uint _itemId) public returns (uint) {\r\n\r\n    //check if the user is trying to buy invalid item\r\n    require (_itemId > 0 && _itemId <= itemCounter);\r\n\r\n    buyers[_itemId] = msg.sender;\r\n\r\n    return _itemId;\r\n}\r\n\r\n\r\n    function Junk () public {\r\n        addItem(\"eggs\", \"farm\", 100, 4, \"organic, decomposable\", \"17/04/2018\");\r\n        addItem(\"wood\", \"forest inc\", 1000, 25, \"organic, decomposable, flammable\", \"17/04/2020\");\r\n        addItem(\"unusable oil\", \"chips factory\", 10000, 63, \"organic, flammable\", \"17/04/2019\");\r\n        addItem(\"potatoes peels\", \"chips factory\", 3000, 42, \"organic, decompsable\", \"17/04/2019\");\r\n        addItem(\"broken electronics\", \"Samsung inc\", 1000, 97, \"metal, alumunium, copper\", \"17/04/2020\");\r\n        addItem(\"plastic\", \"Atlas plastic factory\", 6000, 62, \"80% PVC\", \"17/04/2050\");\r\n    }    \r\n}\r\n\r\n",
  "sourcePath": "C:\\Users\\REV\\bitjunk\\contracts\\Junk.sol",
  "compiler": {
    "name": "solc",
    "version": "0.4.21+commit.dfe3193c.Emscripten.clang"
  },
  "schemaVersion": "2.0.0",
  "updatedAt": "2018-04-15T10:57:54.540Z"
}